{
  "contractName": "Voter",
  "abi": [
    {
      "constant": true,
      "inputs": [
        {
          "internalType": "uint256",
          "name": "",
          "type": "uint256"
        }
      ],
      "name": "options",
      "outputs": [
        {
          "internalType": "string",
          "name": "",
          "type": "string"
        }
      ],
      "payable": false,
      "stateMutability": "view",
      "type": "function"
    },
    {
      "constant": true,
      "inputs": [
        {
          "internalType": "uint256",
          "name": "",
          "type": "uint256"
        }
      ],
      "name": "votes",
      "outputs": [
        {
          "internalType": "uint256",
          "name": "",
          "type": "uint256"
        }
      ],
      "payable": false,
      "stateMutability": "view",
      "type": "function"
    },
    {
      "constant": false,
      "inputs": [
        {
          "internalType": "string",
          "name": "option",
          "type": "string"
        }
      ],
      "name": "addOption",
      "outputs": [],
      "payable": false,
      "stateMutability": "nonpayable",
      "type": "function"
    },
    {
      "constant": false,
      "inputs": [],
      "name": "startVoting",
      "outputs": [],
      "payable": false,
      "stateMutability": "nonpayable",
      "type": "function"
    },
    {
      "constant": false,
      "inputs": [
        {
          "internalType": "uint256",
          "name": "option",
          "type": "uint256"
        }
      ],
      "name": "vote",
      "outputs": [],
      "payable": false,
      "stateMutability": "nonpayable",
      "type": "function"
    },
    {
      "constant": false,
      "inputs": [
        {
          "internalType": "string",
          "name": "option",
          "type": "string"
        }
      ],
      "name": "vote",
      "outputs": [],
      "payable": false,
      "stateMutability": "nonpayable",
      "type": "function"
    },
    {
      "constant": true,
      "inputs": [],
      "name": "getVotes",
      "outputs": [
        {
          "internalType": "uint256[]",
          "name": "",
          "type": "uint256[]"
        }
      ],
      "payable": false,
      "stateMutability": "view",
      "type": "function"
    }
  ],
  "bytecode": "0x608060405234801561001057600080fd5b50610c97806100206000396000f3fe608060405234801561001057600080fd5b506004361061007d5760003560e01c8063409e22051161005b578063409e2205146101195780635df81330146101c0578063edc550dc14610202578063fc36e15b146102bd5761007d565b80630121b93f146100825780630dc96015146100b05780631ec6b60a1461010f575b600080fd5b6100ae6004803603602081101561009857600080fd5b8101908080359060200190929190505050610378565b005b6100b8610550565b6040518080602001828103825283818151815260200191508051906020019060200280838360005b838110156100fb5780820151818401526020810190506100e0565b505050509050019250505060405180910390f35b6101176105a8565b005b6101456004803603602081101561012f57600080fd5b810190808035906020019092919050505061078e565b6040518080602001828103825283818151815260200191508051906020019080838360005b8381101561018557808201518184015260208101905061016a565b50505050905090810190601f1680156101b25780820380516001836020036101000a031916815260200191505b509250505060405180910390f35b6101ec600480360360208110156101d657600080fd5b8101908080359060200190929190505050610847565b6040518082815260200191505060405180910390f35b6102bb6004803603602081101561021857600080fd5b810190808035906020019064010000000081111561023557600080fd5b82018360208201111561024757600080fd5b8035906020019184600183028401116401000000008311171561026957600080fd5b91908080601f016020809104026020016040519081016040528093929190818152602001838380828437600081840152601f19601f820116905080830192505050505050509192919290505050610868565b005b610376600480360360208110156102d357600080fd5b81019080803590602001906401000000008111156102f057600080fd5b82018360208201111561030257600080fd5b8035906020019184600183028401116401000000008311171561032457600080fd5b91908080601f016020809104026020016040519081016040528093929190818152602001838380828437600081840152601f19601f82011690508083019250505050505050919291929050505061092d565b005b8060001115801561038d575060018054905081105b6103ff576040517f08c379a000000000000000000000000000000000000000000000000000000000815260040180806020018281038252600e8152602001807f496e76616c6964206f7074696f6e00000000000000000000000000000000000081525060200191505060405180910390fd5b600260003373ffffffffffffffffffffffffffffffffffffffff1673ffffffffffffffffffffffffffffffffffffffff16815260200190815260200160002060009054906101000a900460ff16156104bf576040517f08c379a00000000000000000000000000000000000000000000000000000000081526004018080602001828103825260198152602001807f757365722068617320766f7465642070726576696f75736c790000000000000081525060200191505060405180910390fd5b6001600082815481106104ce57fe5b906000526020600020015401600082815481106104e757fe5b90600052602060002001819055506001600260003373ffffffffffffffffffffffffffffffffffffffff1673ffffffffffffffffffffffffffffffffffffffff16815260200190815260200160002060006101000a81548160ff02191690831515021790555050565b6060600080548060200260200160405190810160405280929190818152602001828054801561059e57602002820191906000526020600020905b81548152602001906001019080831161058a575b5050505050905090565b600460009054906101000a900460ff161561062b576040517f08c379a00000000000000000000000000000000000000000000000000000000081526004018080602001828103825260198152602001807f566f74696e6720686173207374617274656420616c726561640000000000000081525060200191505060405180910390fd5b60008090505b6001805490508110156106775760008090806001815401808255809150509060018203906000526020600020016000909192909190915055508080600101915050610631565b5060008090505b60018054905081101561077057610693610ba1565b6040518060400160405280838152602001600115158152509050806003600184815481106106bd57fe5b9060005260206000200160405180828054600181600116156101000203166002900480156107225780601f10610700576101008083540402835291820191610722565b820191906000526020600020905b81548152906001019060200180831161070e575b505091505090815260200160405180910390206000820151816000015560208201518160010160006101000a81548160ff02191690831515021790555090505050808060010191505061067e565b506001600460006101000a81548160ff021916908315150217905550565b6001818154811061079b57fe5b906000526020600020016000915090508054600181600116156101000203166002900480601f01602080910402602001604051908101604052809291908181526020018280546001816001161561010002031660029004801561083f5780601f106108145761010080835404028352916020019161083f565b820191906000526020600020905b81548152906001019060200180831161082257829003601f168201915b505050505081565b6000818154811061085457fe5b906000526020600020016000915090505481565b600460009054906101000a900460ff16156108eb576040517f08c379a00000000000000000000000000000000000000000000000000000000081526004018080602001828103825260198152602001807f566f74696e6720686173207374617274656420616c726561640000000000000081525060200191505060405180910390fd5b6001819080600181540180825580915050906001820390600052602060002001600090919290919091509080519060200190610928929190610bbd565b505050565b600260003373ffffffffffffffffffffffffffffffffffffffff1673ffffffffffffffffffffffffffffffffffffffff16815260200190815260200160002060009054906101000a900460ff16156109ed576040517f08c379a00000000000000000000000000000000000000000000000000000000081526004018080602001828103825260198152602001807f757365722068617320766f7465642070726576696f75736c790000000000000081525060200191505060405180910390fd5b6109f5610ba1565b6003826040518082805190602001908083835b60208310610a2b5780518252602082019150602081019050602083039250610a08565b6001836020036101000a0380198251168184511680821785525050505050509050019150509081526020016040518091039020604051806040016040529081600082015481526020016001820160009054906101000a900460ff16151515158152505090508060200151610b07576040517f08c379a00000000000000000000000000000000000000000000000000000000081526004018080602001828103825260168152602001807f4f7074696f6e20646f6573206e6f74206578697374730000000000000000000081525060200191505060405180910390fd5b60016000826000015181548110610b1a57fe5b9060005260206000200154016000826000015181548110610b3757fe5b90600052602060002001819055506001600260003373ffffffffffffffffffffffffffffffffffffffff1673ffffffffffffffffffffffffffffffffffffffff16815260200190815260200160002060006101000a81548160ff0219169083151502179055505050565b6040518060400160405280600081526020016000151581525090565b828054600181600116156101000203166002900490600052602060002090601f016020900481019282601f10610bfe57805160ff1916838001178555610c2c565b82800160010185558215610c2c579182015b82811115610c2b578251825591602001919060010190610c10565b5b509050610c399190610c3d565b5090565b610c5f91905b80821115610c5b576000816000905550600101610c43565b5090565b9056fea265627a7a7231582026624483fb9e0470ba1dc17f7db8dcc94767b7f9f31628a0bd538b1fb1d8de2164736f6c63430005100032",
  "source": "pragma solidity >=0.4.0 <0.7.0;\n\ncontract Voter {\n\n    struct OptionPos {\n        uint pos;\n        bool exists;\n    }\n\n    uint[] public votes;\n    string[] public options;\n    mapping(address => bool) hasVoted;\n    mapping(string => OptionPos) posOfOption;\n    bool votingStarted;\n\n    function addOption(string memory option) public {\n        require(!votingStarted, 'Voting has started alread');\n        options.push(option);\n    }\n\n    function startVoting() public {\n        require(!votingStarted, 'Voting has started alread');\n\n        for(uint i = 0; i<options.length; i++) {\n            votes.push(0);\n        }\n\n        for (uint i = 0; i<options.length; i++) {\n            OptionPos memory option = OptionPos(i, true);\n            posOfOption[options[i]] = option;\n        }\n        votingStarted = true;\n    }\n\n    function vote(uint option) public {\n        require(0 <= option && option < options.length, \"Invalid option\");\n        require(!hasVoted[msg.sender], \"user has voted previously\");\n\n        votes[option] = votes[option] + 1;\n        hasVoted[msg.sender] = true;\n    }\n\n    function vote(string memory option) public {\n        require(!hasVoted[msg.sender], \"user has voted previously\");\n\n        OptionPos memory optionPos = posOfOption[option];\n        require(optionPos.exists, \"Option does not exists\");\n\n        votes[optionPos.pos] = votes[optionPos.pos] + 1;\n        hasVoted[msg.sender] = true;\n\n    }\n\n    function getVotes() public view returns (uint[] memory) {\n        return votes;\n    }\n}",
  "sourcePath": "/Users/johnson/Documents/repos/pluralsight-blockchain/truffle-demo/contracts/Voter.sol",
  "compiler": {
    "name": "solc",
    "version": "0.5.16+commit.9c3226ce.Emscripten.clang"
  },
  "schemaVersion": "3.1.0",
  "updatedAt": "2020-04-28T01:03:39.290Z",
  "networkType": "ethereum",
  "devdoc": {
    "methods": {}
  },
  "userdoc": {
    "methods": {}
  }
}